{
  "_format": "hh-sol-artifact-1",
  "contractName": "Crowdfunding",
  "sourceName": "contracts/Crowdfunding.sol",
  "abi": [
    {
      "anonymous": false,
      "inputs": [
        {
          "components": [
            {
              "internalType": "uint256",
              "name": "id",
              "type": "uint256"
            },
            {
              "internalType": "address",
              "name": "owner",
              "type": "address"
            },
            {
              "internalType": "string",
              "name": "poster",
              "type": "string"
            },
            {
              "internalType": "string",
              "name": "title",
              "type": "string"
            },
            {
              "internalType": "uint256",
              "name": "target",
              "type": "uint256"
            },
            {
              "internalType": "uint256",
              "name": "collected",
              "type": "uint256"
            },
            {
              "internalType": "string",
              "name": "description",
              "type": "string"
            },
            {
              "internalType": "bool",
              "name": "isActive",
              "type": "bool"
            },
            {
              "internalType": "uint256[]",
              "name": "transactionsIds",
              "type": "uint256[]"
            }
          ],
          "indexed": false,
          "internalType": "struct Crowdfunding.InitiativeStruct",
          "name": "changedInitiative",
          "type": "tuple"
        }
      ],
      "name": "Change",
      "type": "event"
    },
    {
      "anonymous": false,
      "inputs": [
        {
          "indexed": false,
          "internalType": "address",
          "name": "sender",
          "type": "address"
        },
        {
          "indexed": false,
          "internalType": "address",
          "name": "receiver",
          "type": "address"
        },
        {
          "components": [
            {
              "internalType": "uint256",
              "name": "id",
              "type": "uint256"
            },
            {
              "internalType": "address",
              "name": "owner",
              "type": "address"
            },
            {
              "internalType": "string",
              "name": "poster",
              "type": "string"
            },
            {
              "internalType": "string",
              "name": "title",
              "type": "string"
            },
            {
              "internalType": "uint256",
              "name": "target",
              "type": "uint256"
            },
            {
              "internalType": "uint256",
              "name": "collected",
              "type": "uint256"
            },
            {
              "internalType": "string",
              "name": "description",
              "type": "string"
            },
            {
              "internalType": "bool",
              "name": "isActive",
              "type": "bool"
            },
            {
              "internalType": "uint256[]",
              "name": "transactionsIds",
              "type": "uint256[]"
            }
          ],
          "indexed": false,
          "internalType": "struct Crowdfunding.InitiativeStruct",
          "name": "initiative",
          "type": "tuple"
        },
        {
          "indexed": false,
          "internalType": "uint256",
          "name": "timestamp",
          "type": "uint256"
        },
        {
          "indexed": false,
          "internalType": "uint256",
          "name": "amount",
          "type": "uint256"
        }
      ],
      "name": "Transfer",
      "type": "event"
    },
    {
      "anonymous": false,
      "inputs": [
        {
          "indexed": false,
          "internalType": "uint256",
          "name": "id",
          "type": "uint256"
        },
        {
          "indexed": false,
          "internalType": "address",
          "name": "owner",
          "type": "address"
        },
        {
          "indexed": false,
          "internalType": "string",
          "name": "poster",
          "type": "string"
        },
        {
          "indexed": false,
          "internalType": "string",
          "name": "title",
          "type": "string"
        },
        {
          "indexed": false,
          "internalType": "uint256",
          "name": "target",
          "type": "uint256"
        },
        {
          "indexed": false,
          "internalType": "uint256",
          "name": "collected",
          "type": "uint256"
        },
        {
          "indexed": false,
          "internalType": "string",
          "name": "description",
          "type": "string"
        },
        {
          "indexed": false,
          "internalType": "bool",
          "name": "isActive",
          "type": "bool"
        },
        {
          "indexed": false,
          "internalType": "uint256[]",
          "name": "transactionsIds",
          "type": "uint256[]"
        }
      ],
      "name": "Upload",
      "type": "event"
    },
    {
      "inputs": [
        {
          "internalType": "uint256",
          "name": "id",
          "type": "uint256"
        },
        {
          "internalType": "uint256",
          "name": "newTarget",
          "type": "uint256"
        }
      ],
      "name": "changeTarget",
      "outputs": [],
      "stateMutability": "nonpayable",
      "type": "function"
    },
    {
      "inputs": [
        {
          "internalType": "uint256",
          "name": "id",
          "type": "uint256"
        }
      ],
      "name": "deleteInitiative",
      "outputs": [],
      "stateMutability": "nonpayable",
      "type": "function"
    },
    {
      "inputs": [
        {
          "internalType": "uint256",
          "name": "id",
          "type": "uint256"
        },
        {
          "internalType": "uint256",
          "name": "amount",
          "type": "uint256"
        },
        {
          "internalType": "string",
          "name": "message",
          "type": "string"
        }
      ],
      "name": "donate",
      "outputs": [],
      "stateMutability": "nonpayable",
      "type": "function"
    },
    {
      "inputs": [],
      "name": "getAllInitiatives",
      "outputs": [
        {
          "components": [
            {
              "internalType": "uint256",
              "name": "id",
              "type": "uint256"
            },
            {
              "internalType": "address",
              "name": "owner",
              "type": "address"
            },
            {
              "internalType": "string",
              "name": "poster",
              "type": "string"
            },
            {
              "internalType": "string",
              "name": "title",
              "type": "string"
            },
            {
              "internalType": "uint256",
              "name": "target",
              "type": "uint256"
            },
            {
              "internalType": "uint256",
              "name": "collected",
              "type": "uint256"
            },
            {
              "internalType": "string",
              "name": "description",
              "type": "string"
            },
            {
              "internalType": "bool",
              "name": "isActive",
              "type": "bool"
            },
            {
              "internalType": "uint256[]",
              "name": "transactionsIds",
              "type": "uint256[]"
            }
          ],
          "internalType": "struct Crowdfunding.InitiativeStruct[]",
          "name": "",
          "type": "tuple[]"
        }
      ],
      "stateMutability": "view",
      "type": "function"
    },
    {
      "inputs": [
        {
          "internalType": "uint256",
          "name": "id",
          "type": "uint256"
        }
      ],
      "name": "getTransaction",
      "outputs": [
        {
          "components": [
            {
              "internalType": "uint256",
              "name": "transaction_id",
              "type": "uint256"
            },
            {
              "internalType": "address",
              "name": "sender",
              "type": "address"
            },
            {
              "internalType": "address",
              "name": "receiver",
              "type": "address"
            },
            {
              "internalType": "uint256",
              "name": "init_id",
              "type": "uint256"
            },
            {
              "internalType": "uint256",
              "name": "timestamp",
              "type": "uint256"
            },
            {
              "internalType": "uint256",
              "name": "amount",
              "type": "uint256"
            },
            {
              "internalType": "string",
              "name": "message",
              "type": "string"
            }
          ],
          "internalType": "struct Crowdfunding.TransactionStruct",
          "name": "",
          "type": "tuple"
        }
      ],
      "stateMutability": "view",
      "type": "function"
    },
    {
      "inputs": [
        {
          "internalType": "string",
          "name": "poster",
          "type": "string"
        },
        {
          "internalType": "string",
          "name": "title",
          "type": "string"
        },
        {
          "internalType": "uint256",
          "name": "target",
          "type": "uint256"
        },
        {
          "internalType": "string",
          "name": "description",
          "type": "string"
        }
      ],
      "name": "uploadInitiative",
      "outputs": [],
      "stateMutability": "nonpayable",
      "type": "function"
    }
  ],
  "bytecode": "0x608060405234801561001057600080fd5b50611dc2806100206000396000f3fe608060405234801561001057600080fd5b50600436106100625760003560e01c806316c3cdf51461006757806333ea3dc81461008357806340aab887146100b35780635b8338f2146100cf57806372b0031d146100eb5780638a62f61f14610107575b600080fd5b610081600480360381019061007c9190611201565b610125565b005b61009d6004803603810190610098919061119c565b610534565b6040516100aa91906118a7565b60405180910390f35b6100cd60048036038101906100c891906110f1565b6106fc565b005b6100e960048036038101906100e491906111c5565b6108eb565b005b6101056004803603810190610100919061119c565b610a7b565b005b61010f610c1e565b60405161011c9190611863565b60405180910390f35b60008310158015610137575060035483105b61014057600080fd5b6001600081548092919061015390611c6e565b919050555060006040518060e0016040528060015481526020013373ffffffffffffffffffffffffffffffffffffffff168152602001600286815481106101c3577f4e487b7100000000000000000000000000000000000000000000000000000000600052603260045260246000fd5b906000526020600020906009020160010160009054906101000a900473ffffffffffffffffffffffffffffffffffffffff1673ffffffffffffffffffffffffffffffffffffffff1681526020018581526020014281526020018481526020018381525090806001815401808255809150506001900390600052602060002090600702016000909190919091506000820151816000015560208201518160010160006101000a81548173ffffffffffffffffffffffffffffffffffffffff021916908373ffffffffffffffffffffffffffffffffffffffff16021790555060408201518160020160006101000a81548173ffffffffffffffffffffffffffffffffffffffff021916908373ffffffffffffffffffffffffffffffffffffffff160217905550606082015181600301556080820151816004015560a0820151816005015560c0820151816006019080519060200190610321929190610f1b565b505050816002848154811061035f577f4e487b7100000000000000000000000000000000000000000000000000000000600052603260045260246000fd5b90600052602060002090600902016005015461037b9190611ac5565b600284815481106103b5577f4e487b7100000000000000000000000000000000000000000000000000000000600052603260045260246000fd5b90600052602060002090600902016005018190555060028381548110610404577f4e487b7100000000000000000000000000000000000000000000000000000000600052603260045260246000fd5b906000526020600020906009020160080160015490806001815401808255809150506001900390600052602060002001600090919091909150557feb60cd4a7d74f5710df3a861115284c737715773951138d2990a55c114ed9562336002858154811061049a577f4e487b7100000000000000000000000000000000000000000000000000000000600052603260045260246000fd5b906000526020600020906009020160010160009054906101000a900473ffffffffffffffffffffffffffffffffffffffff1660028681548110610506577f4e487b7100000000000000000000000000000000000000000000000000000000600052603260045260246000fd5b90600052602060002090600902018542604051610527959493929190611809565b60405180910390a1505050565b61053c610fa1565b60008281548110610576577f4e487b7100000000000000000000000000000000000000000000000000000000600052603260045260246000fd5b90600052602060002090600702016040518060e0016040529081600082015481526020016001820160009054906101000a900473ffffffffffffffffffffffffffffffffffffffff1673ffffffffffffffffffffffffffffffffffffffff1673ffffffffffffffffffffffffffffffffffffffff1681526020016002820160009054906101000a900473ffffffffffffffffffffffffffffffffffffffff1673ffffffffffffffffffffffffffffffffffffffff1673ffffffffffffffffffffffffffffffffffffffff16815260200160038201548152602001600482015481526020016005820154815260200160068201805461067390611bee565b80601f016020809104026020016040519081016040528092919081815260200182805461069f90611bee565b80156106ec5780601f106106c1576101008083540402835291602001916106ec565b820191906000526020600020905b8154815290600101906020018083116106cf57829003601f168201915b5050505050815250509050919050565b6060600260405180610120016040528060035481526020013373ffffffffffffffffffffffffffffffffffffffff168152602001878152602001868152602001858152602001600081526020018481526020016001151581526020018381525090806001815401808255809150506001900390600052602060002090600902016000909190919091506000820151816000015560208201518160010160006101000a81548173ffffffffffffffffffffffffffffffffffffffff021916908373ffffffffffffffffffffffffffffffffffffffff16021790555060408201518160020190805190602001906107f2929190610f1b565b50606082015181600301908051906020019061080f929190610f1b565b506080820151816004015560a0820151816005015560c0820151816006019080519060200190610840929190610f1b565b5060e08201518160070160006101000a81548160ff02191690831515021790555061010082015181600801908051906020019061087e92919061100a565b5050506003600081548092919061089490611c6e565b91905055507f7e080eecf18a49730fbb0668a4447d88bb8e8662c4a2502781d48442131fcc5b600354338787876000886001896040516108dc999897969594939291906118c9565b60405180910390a15050505050565b600082101580156108fe57506003548211155b80156109a057506002828154811061093f577f4e487b7100000000000000000000000000000000000000000000000000000000600052603260045260246000fd5b906000526020600020906009020160010160009054906101000a900473ffffffffffffffffffffffffffffffffffffffff1673ffffffffffffffffffffffffffffffffffffffff163373ffffffffffffffffffffffffffffffffffffffff16145b6109a957600080fd5b80600283815481106109e4577f4e487b7100000000000000000000000000000000000000000000000000000000600052603260045260246000fd5b9060005260206000209060090201600401819055507f19354cda34a5a77d3a2e032bbbbb0c523948bcf796cca72f3f391ffd3c8c9bb660028381548110610a54577f4e487b7100000000000000000000000000000000000000000000000000000000600052603260045260246000fd5b9060005260206000209060090201604051610a6f9190611885565b60405180910390a15050565b60008110158015610a8e57506003548111155b8015610b30575060028181548110610acf577f4e487b7100000000000000000000000000000000000000000000000000000000600052603260045260246000fd5b906000526020600020906009020160010160009054906101000a900473ffffffffffffffffffffffffffffffffffffffff1673ffffffffffffffffffffffffffffffffffffffff163373ffffffffffffffffffffffffffffffffffffffff16145b610b3957600080fd5b600060028281548110610b75577f4e487b7100000000000000000000000000000000000000000000000000000000600052603260045260246000fd5b906000526020600020906009020160070160006101000a81548160ff0219169083151502179055507f19354cda34a5a77d3a2e032bbbbb0c523948bcf796cca72f3f391ffd3c8c9bb660028281548110610bf8577f4e487b7100000000000000000000000000000000000000000000000000000000600052603260045260246000fd5b9060005260206000209060090201604051610c139190611885565b60405180910390a150565b60606002805480602002602001604051908101604052809291908181526020016000905b82821015610f12578382906000526020600020906009020160405180610120016040529081600082015481526020016001820160009054906101000a900473ffffffffffffffffffffffffffffffffffffffff1673ffffffffffffffffffffffffffffffffffffffff1673ffffffffffffffffffffffffffffffffffffffff168152602001600282018054610cd690611bee565b80601f0160208091040260200160405190810160405280929190818152602001828054610d0290611bee565b8015610d4f5780601f10610d2457610100808354040283529160200191610d4f565b820191906000526020600020905b815481529060010190602001808311610d3257829003601f168201915b50505050508152602001600382018054610d6890611bee565b80601f0160208091040260200160405190810160405280929190818152602001828054610d9490611bee565b8015610de15780601f10610db657610100808354040283529160200191610de1565b820191906000526020600020905b815481529060010190602001808311610dc457829003601f168201915b505050505081526020016004820154815260200160058201548152602001600682018054610e0e90611bee565b80601f0160208091040260200160405190810160405280929190818152602001828054610e3a90611bee565b8015610e875780601f10610e5c57610100808354040283529160200191610e87565b820191906000526020600020905b815481529060010190602001808311610e6a57829003601f168201915b505050505081526020016007820160009054906101000a900460ff1615151515815260200160088201805480602002602001604051908101604052809291908181526020018280548015610efa57602002820191906000526020600020905b815481526020019060010190808311610ee6575b50505050508152505081526020019060010190610c42565b50505050905090565b828054610f2790611bee565b90600052602060002090601f016020900481019282610f495760008555610f90565b82601f10610f6257805160ff1916838001178555610f90565b82800160010185558215610f90579182015b82811115610f8f578251825591602001919060010190610f74565b5b509050610f9d9190611057565b5090565b6040518060e0016040528060008152602001600073ffffffffffffffffffffffffffffffffffffffff168152602001600073ffffffffffffffffffffffffffffffffffffffff168152602001600081526020016000815260200160008152602001606081525090565b828054828255906000526020600020908101928215611046579160200282015b8281111561104557825182559160200191906001019061102a565b5b5090506110539190611057565b5090565b5b80821115611070576000816000905550600101611058565b5090565b6000611087611082846119a3565b611972565b90508281526020810184848401111561109f57600080fd5b6110aa848285611bac565b509392505050565b600082601f8301126110c357600080fd5b81356110d3848260208601611074565b91505092915050565b6000813590506110eb81611d75565b92915050565b6000806000806080858703121561110757600080fd5b600085013567ffffffffffffffff81111561112157600080fd5b61112d878288016110b2565b945050602085013567ffffffffffffffff81111561114a57600080fd5b611156878288016110b2565b9350506040611167878288016110dc565b925050606085013567ffffffffffffffff81111561118457600080fd5b611190878288016110b2565b91505092959194509250565b6000602082840312156111ae57600080fd5b60006111bc848285016110dc565b91505092915050565b600080604083850312156111d857600080fd5b60006111e6858286016110dc565b92505060206111f7858286016110dc565b9150509250929050565b60008060006060848603121561121657600080fd5b6000611224868287016110dc565b9350506020611235868287016110dc565b925050604084013567ffffffffffffffff81111561125257600080fd5b61125e868287016110b2565b9150509250925092565b60006112748383611567565b905092915050565b600061128883836117eb565b60208301905092915050565b61129d81611b52565b82525050565b6112ac81611b52565b82525050565b60006112bd82611a1d565b6112c78185611a70565b9350836020820285016112d9856119d3565b8060005b8581101561131557848403895281516112f68582611268565b945061130183611a49565b925060208a019950506001810190506112dd565b50829750879550505050505092915050565b600061133282611a28565b61133c8185611a81565b9350611347836119e3565b8060005b8381101561137857815161135f888261127c565b975061136a83611a56565b92505060018101905061134b565b5085935050505092915050565b600061139082611a28565b61139a8185611a92565b93506113a5836119e3565b8060005b838110156113d65781516113bd888261127c565b97506113c883611a56565b9250506001810190506113a9565b5085935050505092915050565b60006113ee82611a33565b6113f88185611a81565b9350611403836119f3565b8060005b8381101561143b5761141882611d44565b611422888261127c565b975061142d83611a63565b925050600181019050611407565b5085935050505092915050565b61145181611b64565b82525050565b61146081611b64565b82525050565b61146f81611b9a565b82525050565b600061148082611a3e565b61148a8185611aa3565b935061149a818560208601611bbb565b6114a381611d57565b840191505092915050565b60006114b982611a3e565b6114c38185611ab4565b93506114d3818560208601611bbb565b6114dc81611d57565b840191505092915050565b600081546114f481611bee565b6114fe8186611aa3565b94506001821660008114611519576001811461152b5761155e565b60ff198316865260208601935061155e565b61153485611a08565b60005b8381101561155657815481890152600182019150602081019050611537565b808801955050505b50505092915050565b60006101208301600083015161158060008601826117eb565b5060208301516115936020860182611294565b50604083015184820360408601526115ab8282611475565b915050606083015184820360608601526115c58282611475565b91505060808301516115da60808601826117eb565b5060a08301516115ed60a08601826117eb565b5060c083015184820360c08601526116058282611475565b91505060e083015161161a60e0860182611448565b506101008301518482036101008601526116348282611327565b9150508091505092915050565b60006101208301600080840154905061165981611c54565b61166660008701826117eb565b506001840154905061167781611c20565b6116846020870182611294565b5060028401858303604087015261169b83826114e7565b9250506003840185830360608701526116b483826114e7565b925050600484015490506116c781611c54565b6116d460808701826117eb565b50600584015490506116e581611c54565b6116f260a08701826117eb565b506006840185830360c087015261170983826114e7565b9250506007840154905061171c81611c3a565b61172960e0870182611448565b506008840185830361010087015261174183826113e3565b925050819250505092915050565b600060e08301600083015161176760008601826117eb565b50602083015161177a6020860182611294565b50604083015161178d6040860182611294565b5060608301516117a060608601826117eb565b5060808301516117b360808601826117eb565b5060a08301516117c660a08601826117eb565b5060c083015184820360c08601526117de8282611475565b9150508091505092915050565b6117f481611b90565b82525050565b61180381611b90565b82525050565b600060a08201905061181e60008301886112a3565b61182b60208301876112a3565b818103604083015261183d8186611641565b905061184c60608301856117fa565b61185960808301846117fa565b9695505050505050565b6000602082019050818103600083015261187d81846112b2565b905092915050565b6000602082019050818103600083015261189f8184611641565b905092915050565b600060208201905081810360008301526118c1818461174f565b905092915050565b6000610120820190506118df600083018c6117fa565b6118ec602083018b6112a3565b81810360408301526118fe818a6114ae565b9050818103606083015261191281896114ae565b905061192160808301886117fa565b61192e60a0830187611466565b81810360c083015261194081866114ae565b905061194f60e0830185611457565b8181036101008301526119628184611385565b90509a9950505050505050505050565b6000604051905081810181811067ffffffffffffffff8211171561199957611998611d15565b5b8060405250919050565b600067ffffffffffffffff8211156119be576119bd611d15565b5b601f19601f8301169050602081019050919050565b6000819050602082019050919050565b6000819050602082019050919050565b60008190508160005260206000209050919050565b60008190508160005260206000209050919050565b600081519050919050565b600081519050919050565b600081549050919050565b600081519050919050565b6000602082019050919050565b6000602082019050919050565b6000600182019050919050565b600082825260208201905092915050565b600082825260208201905092915050565b600082825260208201905092915050565b600082825260208201905092915050565b600082825260208201905092915050565b6000611ad082611b90565b9150611adb83611b90565b9250827fffffffffffffffffffffffffffffffffffffffffffffffffffffffffffffffff03821115611b1057611b0f611cb7565b5b828201905092915050565b600073ffffffffffffffffffffffffffffffffffffffff82169050919050565b600060ff82169050919050565b6000819050919050565b6000611b5d82611b70565b9050919050565b60008115159050919050565b600073ffffffffffffffffffffffffffffffffffffffff82169050919050565b6000819050919050565b6000611ba582611b90565b9050919050565b82818337600083830152505050565b60005b83811015611bd9578082015181840152602081019050611bbe565b83811115611be8576000848401525b50505050565b60006002820490506001821680611c0657607f821691505b60208210811415611c1a57611c19611ce6565b5b50919050565b6000611c33611c2e83611d68565b611b1b565b9050919050565b6000611c4d611c4883611d68565b611b3b565b9050919050565b6000611c67611c6283611d68565b611b48565b9050919050565b6000611c7982611b90565b91507fffffffffffffffffffffffffffffffffffffffffffffffffffffffffffffffff821415611cac57611cab611cb7565b5b600182019050919050565b7f4e487b7100000000000000000000000000000000000000000000000000000000600052601160045260246000fd5b7f4e487b7100000000000000000000000000000000000000000000000000000000600052602260045260246000fd5b7f4e487b7100000000000000000000000000000000000000000000000000000000600052604160045260246000fd5b6000611d508254611c54565b9050919050565b6000601f19601f8301169050919050565b60008160001c9050919050565b611d7e81611b90565b8114611d8957600080fd5b5056fea26469706673582212207029a5de9a8d903cc4acaca45adce22a2a1304d826f707477ce33eadc3a9dc9c64736f6c63430008000033",
  "linkReferences": {},
  "deployedLinkReferences": {}
}